{
  "[[\"1\"],\"a81f16f79d371216eb2a14c7c3c4fa487090e75973c0d805fdf7bd4c75dc481c\"]": {
    "0": [
      {
        "blockHeight": 3009697,
        "timestamp": 1728039253,
        "inputs": "1",
        "outputs": "2",
        "sizeBytes": 110,
        "fee": "3",
        "feePerByte": "4",
        "rawTransaction": "5"
      },
      [
        "6"
      ],
      [
        "7"
      ],
      "0.000021",
      "1.9090909090909090909e-7",
      "0200000000010174e9eb30ba0f1a56e1d9a4187ab4391be7e0eca694d7e87d343753a206ff27490100000000ffffffff016400000000000000160014fcb55e6920e2c6f37327a5bf4a24cf42ebbaf07c0248304502210086c68ffad1ecadf9e775d37161ad7199ea467785eea5a6fcd733e5f279c9a559022014125601a81ea8c64bd41802cfefb582625a76fdf010c119368020d3a5aa5a26012102bf2e39d20b43fa02c0fa0e65a079b60e559769cdf548c1de0b36ac4431f74fc600000000",
      {
        "address": "8",
        "amount": "9",
        "txId": "10",
        "n": 1,
        "script": "11",
        "scriptSig": "12"
      },
      {
        "address": "13",
        "amount": "14",
        "n": 0,
        "script": "15"
      },
      "tb1q3dlgmncmjfykpas4cs9pu8l6f3mpn5q48whnkp",
      "0.000022",
      "4927ff06a25337347de8d794a6ece0e71b39b47a18a4d9e1561a0fba30ebe974",
      "00148b7e8dcf1b924960f615c40a1e1ffa4c7619d015",
      "",
      "tb1qlj64u6fqutr0xue85kl55fx0gt4m4urun25p7q",
      "0.000001",
      "0014fcb55e6920e2c6f37327a5bf4a24cf42ebbaf07c"
    ],
    "1": [
      {
        "blockHeight": 3009697,
        "timestamp": 1728039253,
        "inputs": "1",
        "outputs": "2",
        "sizeBytes": 110,
        "fee": "3",
        "feePerByte": "4",
        "rawTransaction": "5"
      },
      [
        "6"
      ],
      [
        "7"
      ],
      "0.000021",
      "1.9090909090909090909e-7",
      "0200000000010174e9eb30ba0f1a56e1d9a4187ab4391be7e0eca694d7e87d343753a206ff27490100000000ffffffff016400000000000000160014fcb55e6920e2c6f37327a5bf4a24cf42ebbaf07c0248304502210086c68ffad1ecadf9e775d37161ad7199ea467785eea5a6fcd733e5f279c9a559022014125601a81ea8c64bd41802cfefb582625a76fdf010c119368020d3a5aa5a26012102bf2e39d20b43fa02c0fa0e65a079b60e559769cdf548c1de0b36ac4431f74fc600000000",
      {
        "address": "8",
        "amount": "9",
        "txId": "10",
        "n": 1,
        "script": "11",
        "scriptSig": "12"
      },
      {
        "address": "13",
        "amount": "14",
        "n": 0,
        "script": "15"
      },
      "tb1q3dlgmncmjfykpas4cs9pu8l6f3mpn5q48whnkp",
      "0.000022",
      "4927ff06a25337347de8d794a6ece0e71b39b47a18a4d9e1561a0fba30ebe974",
      "00148b7e8dcf1b924960f615c40a1e1ffa4c7619d015",
      "",
      "tb1qlj64u6fqutr0xue85kl55fx0gt4m4urun25p7q",
      "0.000001",
      "0014fcb55e6920e2c6f37327a5bf4a24cf42ebbaf07c"
    ]
  }
}
